{
  "_format": "hh-sol-artifact-1",
  "contractName": "StakingContract",
  "sourceName": "contracts/StakingContract.sol",
  "abi": [
    {
      "inputs": [
        {
          "internalType": "address",
          "name": "_token",
          "type": "address"
        }
      ],
      "stateMutability": "nonpayable",
      "type": "constructor"
    },
    {
      "inputs": [],
      "name": "ReentrancyGuardReentrantCall",
      "type": "error"
    },
    {
      "anonymous": false,
      "inputs": [
        {
          "indexed": true,
          "internalType": "address",
          "name": "previousOwner",
          "type": "address"
        },
        {
          "indexed": true,
          "internalType": "address",
          "name": "newOwner",
          "type": "address"
        }
      ],
      "name": "OwnershipTransferred",
      "type": "event"
    },
    {
      "anonymous": false,
      "inputs": [
        {
          "indexed": false,
          "internalType": "uint256",
          "name": "amount",
          "type": "uint256"
        },
        {
          "indexed": false,
          "internalType": "address",
          "name": "addr",
          "type": "address"
        },
        {
          "indexed": false,
          "internalType": "uint256",
          "name": "stakingtime",
          "type": "uint256"
        },
        {
          "indexed": false,
          "internalType": "uint256",
          "name": "unstakingTime",
          "type": "uint256"
        }
      ],
      "name": "stake",
      "type": "event"
    },
    {
      "anonymous": false,
      "inputs": [
        {
          "indexed": false,
          "internalType": "uint256",
          "name": "reward",
          "type": "uint256"
        },
        {
          "indexed": false,
          "internalType": "address",
          "name": "addr",
          "type": "address"
        },
        {
          "indexed": false,
          "internalType": "uint256",
          "name": "unstakingTime",
          "type": "uint256"
        }
      ],
      "name": "unstake",
      "type": "event"
    },
    {
      "inputs": [],
      "name": "Stake",
      "outputs": [],
      "stateMutability": "payable",
      "type": "function"
    },
    {
      "inputs": [],
      "name": "apy",
      "outputs": [
        {
          "internalType": "uint256",
          "name": "",
          "type": "uint256"
        }
      ],
      "stateMutability": "view",
      "type": "function"
    },
    {
      "inputs": [
        {
          "internalType": "address",
          "name": "_staker",
          "type": "address"
        }
      ],
      "name": "calculateRewards",
      "outputs": [
        {
          "internalType": "uint256",
          "name": "",
          "type": "uint256"
        }
      ],
      "stateMutability": "view",
      "type": "function"
    },
    {
      "inputs": [],
      "name": "checkAPY",
      "outputs": [
        {
          "internalType": "uint256",
          "name": "",
          "type": "uint256"
        }
      ],
      "stateMutability": "view",
      "type": "function"
    },
    {
      "inputs": [],
      "name": "checkContractBalance",
      "outputs": [
        {
          "internalType": "uint256",
          "name": "",
          "type": "uint256"
        }
      ],
      "stateMutability": "view",
      "type": "function"
    },
    {
      "inputs": [],
      "name": "checkOwner",
      "outputs": [
        {
          "internalType": "address",
          "name": "",
          "type": "address"
        }
      ],
      "stateMutability": "view",
      "type": "function"
    },
    {
      "inputs": [
        {
          "internalType": "address",
          "name": "_user",
          "type": "address"
        }
      ],
      "name": "getDepositInfo",
      "outputs": [
        {
          "internalType": "uint256",
          "name": "",
          "type": "uint256"
        },
        {
          "internalType": "uint256",
          "name": "",
          "type": "uint256"
        }
      ],
      "stateMutability": "view",
      "type": "function"
    },
    {
      "inputs": [],
      "name": "lockPeriod",
      "outputs": [
        {
          "internalType": "uint256",
          "name": "",
          "type": "uint256"
        }
      ],
      "stateMutability": "view",
      "type": "function"
    },
    {
      "inputs": [],
      "name": "owner",
      "outputs": [
        {
          "internalType": "address",
          "name": "",
          "type": "address"
        }
      ],
      "stateMutability": "view",
      "type": "function"
    },
    {
      "inputs": [],
      "name": "renounceOwnership",
      "outputs": [],
      "stateMutability": "nonpayable",
      "type": "function"
    },
    {
      "inputs": [
        {
          "internalType": "address",
          "name": "",
          "type": "address"
        }
      ],
      "name": "stakers",
      "outputs": [
        {
          "internalType": "uint256",
          "name": "depositedAmount",
          "type": "uint256"
        },
        {
          "internalType": "uint256",
          "name": "timeOfLastUpdate",
          "type": "uint256"
        },
        {
          "internalType": "uint256",
          "name": "endTime",
          "type": "uint256"
        }
      ],
      "stateMutability": "view",
      "type": "function"
    },
    {
      "inputs": [],
      "name": "stakersCount",
      "outputs": [
        {
          "internalType": "uint256",
          "name": "",
          "type": "uint256"
        }
      ],
      "stateMutability": "view",
      "type": "function"
    },
    {
      "inputs": [],
      "name": "token",
      "outputs": [
        {
          "internalType": "contract ERC20",
          "name": "",
          "type": "address"
        }
      ],
      "stateMutability": "view",
      "type": "function"
    },
    {
      "inputs": [
        {
          "internalType": "address",
          "name": "newOwner",
          "type": "address"
        }
      ],
      "name": "transferOwnership",
      "outputs": [],
      "stateMutability": "nonpayable",
      "type": "function"
    },
    {
      "inputs": [],
      "name": "unStake",
      "outputs": [],
      "stateMutability": "nonpayable",
      "type": "function"
    },
    {
      "inputs": [],
      "name": "unstakersCount",
      "outputs": [
        {
          "internalType": "uint256",
          "name": "",
          "type": "uint256"
        }
      ],
      "stateMutability": "view",
      "type": "function"
    }
  ],
  "bytecode": "0x608060405260006002556000600355600160045560326005553480156200002557600080fd5b506040516200165a3803806200165a83398181016040528101906200004b9190620001ff565b60016000819055506000620000656200018d60201b60201c565b905080600160006101000a81548173ffffffffffffffffffffffffffffffffffffffff021916908373ffffffffffffffffffffffffffffffffffffffff1602179055508073ffffffffffffffffffffffffffffffffffffffff16600073ffffffffffffffffffffffffffffffffffffffff167f8be0079c531659141344cd1fd0a4f28419497f9722a3daafe3b4186f6b6457e060405160405180910390a35080600860006101000a81548173ffffffffffffffffffffffffffffffffffffffff021916908373ffffffffffffffffffffffffffffffffffffffff16021790555033600660006101000a81548173ffffffffffffffffffffffffffffffffffffffff021916908373ffffffffffffffffffffffffffffffffffffffff1602179055505062000231565b600033905090565b600080fd5b600073ffffffffffffffffffffffffffffffffffffffff82169050919050565b6000620001c7826200019a565b9050919050565b620001d981620001ba565b8114620001e557600080fd5b50565b600081519050620001f981620001ce565b92915050565b60006020828403121562000218576200021762000195565b5b60006200022884828501620001e8565b91505092915050565b61141980620002416000396000f3fe6080604052600436106100f35760003560e01c80638da5cb5b1161008a578063cdbce03d11610059578063cdbce03d1461030d578063de20bc9214610338578063f2fde38b14610342578063fc0c546a1461036b576100f3565b80638da5cb5b1461024d5780639168ae7214610278578063a2e80c5e146102b7578063bbbfb30c146102e2576100f3565b806364ab8675116100c657806364ab8675146101b7578063712ff8ff146101f4578063715018a61461021f57806373cf575a14610236576100f3565b80633bcfc4b8146100f85780633fd8b02f1461012357806350312c9e1461014e5780635287ce1214610179575b600080fd5b34801561010457600080fd5b5061010d610396565b60405161011a9190610db4565b60405180910390f35b34801561012f57600080fd5b5061013861039c565b6040516101459190610db4565b60405180910390f35b34801561015a57600080fd5b506101636103a2565b6040516101709190610db4565b60405180910390f35b34801561018557600080fd5b506101a0600480360381019061019b9190610e32565b6103aa565b6040516101ae929190610e5f565b60405180910390f35b3480156101c357600080fd5b506101de60048036038101906101d99190610e32565b61040e565b6040516101eb9190610db4565b60405180910390f35b34801561020057600080fd5b5061020961056c565b6040516102169190610db4565b60405180910390f35b34801561022b57600080fd5b50610234610572565b005b34801561024257600080fd5b5061024b6106af565b005b34801561025957600080fd5b5061026261093a565b60405161026f9190610e97565b60405180910390f35b34801561028457600080fd5b5061029f600480360381019061029a9190610e32565b610964565b6040516102ae93929190610eb2565b60405180910390f35b3480156102c357600080fd5b506102cc61098e565b6040516102d99190610db4565b60405180910390f35b3480156102ee57600080fd5b506102f7610994565b6040516103049190610db4565b60405180910390f35b34801561031957600080fd5b5061032261099e565b60405161032f9190610e97565b60405180910390f35b6103406109c8565b005b34801561034e57600080fd5b5061036960048036038101906103649190610e32565b610b72565b005b34801561037757600080fd5b50610380610d1d565b60405161038d9190610f48565b60405180910390f35b60055481565b60045481565b600047905090565b60008060006103b88461040e565b90506000600760008673ffffffffffffffffffffffffffffffffffffffff1673ffffffffffffffffffffffffffffffffffffffff1681526020019081526020016000206000015490508181935093505050915091565b6000600760008373ffffffffffffffffffffffffffffffffffffffff1673ffffffffffffffffffffffffffffffffffffffff168152602001908152602001600020600201544210610562576000600760008473ffffffffffffffffffffffffffffffffffffffff1673ffffffffffffffffffffffffffffffffffffffff16815260200190815260200160002060010154600760008573ffffffffffffffffffffffffffffffffffffffff1673ffffffffffffffffffffffffffffffffffffffff168152602001908152602001600020600201546104eb9190610f92565b905060006064600554600760008773ffffffffffffffffffffffffffffffffffffffff1673ffffffffffffffffffffffffffffffffffffffff16815260200190815260200160002060000154846105429190610fc6565b61054c9190610fc6565b6105569190611037565b90508092505050610567565b600090505b919050565b60035481565b61057a610d43565b73ffffffffffffffffffffffffffffffffffffffff1661059861093a565b73ffffffffffffffffffffffffffffffffffffffff16146105ee576040517f08c379a00000000000000000000000000000000000000000000000000000000081526004016105e5906110c5565b60405180910390fd5b600073ffffffffffffffffffffffffffffffffffffffff16600160009054906101000a900473ffffffffffffffffffffffffffffffffffffffff1673ffffffffffffffffffffffffffffffffffffffff167f8be0079c531659141344cd1fd0a4f28419497f9722a3daafe3b4186f6b6457e060405160405180910390a36000600160006101000a81548173ffffffffffffffffffffffffffffffffffffffff021916908373ffffffffffffffffffffffffffffffffffffffff160217905550565b6106b7610d4b565b6000600760003373ffffffffffffffffffffffffffffffffffffffff1673ffffffffffffffffffffffffffffffffffffffff168152602001908152602001600020600001541161073c576040517f08c379a000000000000000000000000000000000000000000000000000000000815260040161073390611131565b60405180910390fd5b60006107473361040e565b90506000600760003373ffffffffffffffffffffffffffffffffffffffff1673ffffffffffffffffffffffffffffffffffffffff168152602001908152602001600020600001549050600860009054906101000a900473ffffffffffffffffffffffffffffffffffffffff1673ffffffffffffffffffffffffffffffffffffffff166323b872dd6107d661093a565b33856040518463ffffffff1660e01b81526004016107f693929190611151565b6020604051808303816000875af1158015610815573d6000803e3d6000fd5b505050506040513d601f19601f8201168201806040525081019061083991906111c0565b503373ffffffffffffffffffffffffffffffffffffffff166108fc829081150290604051600060405180830381858888f19350505050158015610880573d6000803e3d6000fd5b507f51a7c71612bbc91e40c8399a943910073e3e8efe41f5904135677ee75e995aa48233426040516108b4939291906111ed565b60405180910390a1600760003373ffffffffffffffffffffffffffffffffffffffff1673ffffffffffffffffffffffffffffffffffffffff1681526020019081526020016000206000808201600090556001820160009055600282016000905550506003600081548092919061092990611224565b91905055505050610938610d91565b565b6000600160009054906101000a900473ffffffffffffffffffffffffffffffffffffffff16905090565b60076020528060005260406000206000915090508060000154908060010154908060020154905083565b60025481565b6000600554905090565b6000600660009054906101000a900473ffffffffffffffffffffffffffffffffffffffff16905090565b6109d0610d4b565b6001341015610a14576040517f08c379a0000000000000000000000000000000000000000000000000000000008152600401610a0b906112b8565b60405180910390fd5b34600760003373ffffffffffffffffffffffffffffffffffffffff1673ffffffffffffffffffffffffffffffffffffffff1681526020019081526020016000206000016000828254610a6691906112d8565b9250508190555042600760003373ffffffffffffffffffffffffffffffffffffffff1673ffffffffffffffffffffffffffffffffffffffff16815260200190815260200160002060010181905550603c42610ac191906112d8565b600760003373ffffffffffffffffffffffffffffffffffffffff1673ffffffffffffffffffffffffffffffffffffffff1681526020019081526020016000206002018190555060026000815480929190610b1a90611224565b91905055507ffaf5ec0c87ac8990550a21d787d7988670de1217798de1cad518c8ab416d96ac343342603c42610b5091906112d8565b604051610b60949392919061130c565b60405180910390a1610b70610d91565b565b610b7a610d43565b73ffffffffffffffffffffffffffffffffffffffff16610b9861093a565b73ffffffffffffffffffffffffffffffffffffffff1614610bee576040517f08c379a0000000000000000000000000000000000000000000000000000000008152600401610be5906110c5565b60405180910390fd5b600073ffffffffffffffffffffffffffffffffffffffff168173ffffffffffffffffffffffffffffffffffffffff1603610c5d576040517f08c379a0000000000000000000000000000000000000000000000000000000008152600401610c54906113c3565b60405180910390fd5b8073ffffffffffffffffffffffffffffffffffffffff16600160009054906101000a900473ffffffffffffffffffffffffffffffffffffffff1673ffffffffffffffffffffffffffffffffffffffff167f8be0079c531659141344cd1fd0a4f28419497f9722a3daafe3b4186f6b6457e060405160405180910390a380600160006101000a81548173ffffffffffffffffffffffffffffffffffffffff021916908373ffffffffffffffffffffffffffffffffffffffff16021790555050565b600860009054906101000a900473ffffffffffffffffffffffffffffffffffffffff1681565b600033905090565b600260005403610d87576040517f3ee5aeb500000000000000000000000000000000000000000000000000000000815260040160405180910390fd5b6002600081905550565b6001600081905550565b6000819050919050565b610dae81610d9b565b82525050565b6000602082019050610dc96000830184610da5565b92915050565b600080fd5b600073ffffffffffffffffffffffffffffffffffffffff82169050919050565b6000610dff82610dd4565b9050919050565b610e0f81610df4565b8114610e1a57600080fd5b50565b600081359050610e2c81610e06565b92915050565b600060208284031215610e4857610e47610dcf565b5b6000610e5684828501610e1d565b91505092915050565b6000604082019050610e746000830185610da5565b610e816020830184610da5565b9392505050565b610e9181610df4565b82525050565b6000602082019050610eac6000830184610e88565b92915050565b6000606082019050610ec76000830186610da5565b610ed46020830185610da5565b610ee16040830184610da5565b949350505050565b6000819050919050565b6000610f0e610f09610f0484610dd4565b610ee9565b610dd4565b9050919050565b6000610f2082610ef3565b9050919050565b6000610f3282610f15565b9050919050565b610f4281610f27565b82525050565b6000602082019050610f5d6000830184610f39565b92915050565b7f4e487b7100000000000000000000000000000000000000000000000000000000600052601160045260246000fd5b6000610f9d82610d9b565b9150610fa883610d9b565b9250828203905081811115610fc057610fbf610f63565b5b92915050565b6000610fd182610d9b565b9150610fdc83610d9b565b9250828202610fea81610d9b565b9150828204841483151761100157611000610f63565b5b5092915050565b7f4e487b7100000000000000000000000000000000000000000000000000000000600052601260045260246000fd5b600061104282610d9b565b915061104d83610d9b565b92508261105d5761105c611008565b5b828204905092915050565b600082825260208201905092915050565b7f4f776e61626c653a2063616c6c6572206973206e6f7420746865206f776e6572600082015250565b60006110af602083611068565b91506110ba82611079565b602082019050919050565b600060208201905081810360008301526110de816110a2565b9050919050565b7f666972737420796f75206e65656420746f207374616b65206574686572730000600082015250565b600061111b601e83611068565b9150611126826110e5565b602082019050919050565b6000602082019050818103600083015261114a8161110e565b9050919050565b60006060820190506111666000830186610e88565b6111736020830185610e88565b6111806040830184610da5565b949350505050565b60008115159050919050565b61119d81611188565b81146111a857600080fd5b50565b6000815190506111ba81611194565b92915050565b6000602082840312156111d6576111d5610dcf565b5b60006111e4848285016111ab565b91505092915050565b60006060820190506112026000830186610da5565b61120f6020830185610e88565b61121c6040830184610da5565b949350505050565b600061122f82610d9b565b91507fffffffffffffffffffffffffffffffffffffffffffffffffffffffffffffffff820361126157611260610f63565b5b600182019050919050565b7f4d696e696d756d207374616b65206e6f74206d65740000000000000000000000600082015250565b60006112a2601583611068565b91506112ad8261126c565b602082019050919050565b600060208201905081810360008301526112d181611295565b9050919050565b60006112e382610d9b565b91506112ee83610d9b565b925082820190508082111561130657611305610f63565b5b92915050565b60006080820190506113216000830187610da5565b61132e6020830186610e88565b61133b6040830185610da5565b6113486060830184610da5565b95945050505050565b7f4f776e61626c653a206e6577206f776e657220697320746865207a65726f206160008201527f6464726573730000000000000000000000000000000000000000000000000000602082015250565b60006113ad602683611068565b91506113b882611351565b604082019050919050565b600060208201905081810360008301526113dc816113a0565b905091905056fea26469706673582212206568c10f8e8ce6da0c4716cea5897b8186f996aaf61a743f8fb5b9a79573c6d164736f6c63430008130033",
  "linkReferences": {},
  "deployedLinkReferences": {}
}